:100000007BC30000AAC30000A8C30000A6C3000071
:10001000A4C30000A2C30000A0C300009EC3000050
:100020009CC300009AC3000098C3000096C3000060
:1000300094C3000092C3000090C300008EC3000070
:100040008CC300008AC3000088C3000086C3000080
:1000500084C3000082C3000080C300000C94B10E72
:100060007CC300000C94370E0C940E0E76C3000077
:1000700074C3000072C3000070C300006EC30000B0
:100080006CC300006AC3000068C3000066C30000C0
:1000900064C3000062C3000060C300005EC30000D0
:1000A0005CC300005AC3000058C3000056C30000E0
:1000B00054C3000052C3000050C300004EC30000F0
:1000C0004CC300004AC3000048C3000046C3000000
:1000D00044C3000042C3000040C300003EC3000010
:1000E0003CC30000D0118512B516B516B516B5166D
:1000F000B516B5163613B516B516B516B5160014E1
:100100000014B516B516B516B516B51600140014BC
:1001100083144B154B154B15ED155104C2045B04AC
:100120005B046F046F04C204C204C204C2045B0413
:10013000A404C2047D04A404A404A404A404A40488
:100140009404A404C204A404A404A404A404A40461
:10015000A404A404F704FA04E904ED04F10431054D
:10016000FE04020508050C05100516051A051E05F6
:100170003105240528052C05080C205F000000002F
:1001800000000000000000000000202020202020AF
:100190000020000000285050000000000000000077
:1001A00000002828FC2850FC50500000002078A8AF
:1001B000A0603028A8F02000000048A8B0502834E3
:1001C00054480000000020505078A8A8906C00000F
:1001D0000040408000000000000000000004081003
:1001E0001010101010080400004020101010101003
:1001F0001020400000000020A87070A8200000001F
:100200000000202020F82020200000000000000036
:1002100000000000004040800000000000F80000E6
:10022000000000000000000000000000004000008E
:10023000000810101020204040408000000070880E
:100240008888888888700000000020602020202096
:1002500020700000000070888810204080F80000A6
:100260000000708808300808887000000000103016
:1002700050509078101800000000F88080F00808B6
:10028000887000000000709080F0888888700000FE
:100290000000F8901020202020200000000070882E
:1002A00088708888887000000000708888887808C6
:1002B0004870000000000000200000000020000046
:1002C00000000000002000000020200000040810B2
:1002D000204020100804000000000000F80000F892
:1002E000000000000040201008040810204000001A
:1002F0000000708888102020002000000000708816
:1003000098A8A8B8807800000000202030505078CD
:1003100048CC00000000F0484870484848F0000011
:100320000000788880808080887000000000F0489D
:100330004848484848F000000000F84850705040D5
:1003400048F800000000F8485070504040E00000BD
:100350000000384880809C88483000000000CC486D
:100360004878484848CC00000000F8202020202091
:1003700020F8000000007C10101010101090E00019
:100380000000EC485060505048EC00000000E04095
:100390004040404044FC00000000D8D8D8D8A8A86D
:1003A000A8A800000000DC486868585848E8000029
:1003B0000000708888888888887000000000F048F5
:1003C0004870404040E0000000007088888888E85D
:1003D000987018000000F0484870504848EC000041
:1003E000000078888060100888F000000000F8A8FD
:1003F00020202020207000000000CC4848484848B9
:10040000483000000000CC48485050302020000008
:100410000000A8A8A8705050505000000000D8500C
:100420005020205050D800000000D85050202020EC
:10043000207000000000F8901020204048F80000D4
:10044000003820202020202020203800004040407C
:100450002020101010080000007010101010101054
:10046000101070000020500000000000000000008C
:100470000000000000000000000000FC0020000060
:1004800000000000000000000000000000304838BC
:10049000483C00000000C0404070484848700000E0
:1004A00000000000003848404038000000001808F4
:1004B00008384848483C00000000000000304878F8
:1004C0004038000000001C20207820202078000008
:1004D00000000000003C4830407844380000C04034
:1004E0004070484848EC00000000200000602020D8
:1004F000207000000000100000301010101010E0FC
:100500000000C040405C507048EC00000000E0205B
:100510002020202020F800000000000000F0A8A803
:10052000A8A800000000000000F0484848EC0000C7
:100530000000000000304848483000000000000083
:1005400000F04848487040E000000000003848488B
:100550004838081C0000000000D8604040E000005F
:100560000000000000784030087800000000002003
:1005700020702020201800000000000000D848480B
:10058000483C00000000000000EC48503020000013
:100590000000000000A8A8705050000000000000FB
:1005A00000D8502050D800000000000000EC485057
:1005B000302020C0000000000078102020780000CB
:1005C000001810101020101010101800101010102B
:1005D000101010101010101000602020201020208B
:1005E0002020600040A4180000000000000000006F
:1005F00000002100240027002A002D0030003300D5
:1006000001010000040107010A0100000A0B0209B0
:100610000C0D0E080703040100000000000000009C
:1006200000000000000000000000000000000000CA
:100630000000000000001211100000000000000087
:1006400000000000000000000000000000000000AA
:1006500001021020200808102040102040800201D4
:1006600002010804020101020408102040808040B9
:1006700020100804020180040201804020100804B8
:100680000201080402010102040810204080010256
:1006900004081020408000002200250028002B00C4
:1006A0002E003100340002010000050108010B0199
:1006B00005050505070508080808020202020A0ADE
:1006C00008080404040401010101010101010303FC
:1006D000030303030303040707070C0C0C0C0C0CA7
:1006E0000C0C0202020206060606060606060B0BA4
:1006F0000B0B0B0B0B0BEE1811241FBECFEFD1E22F
:10070000DEBFCDBF00E00CBF12E0A0E0B2E0E6E348
:10071000F5E300E00BBF02C007900D92AC33B107C8
:10072000D9F723E0ACE3B2E001C01D92A336B207D3
:10073000E1F713E0CCE7D3E000E006C02197010920
:10074000802FFE010E948D1ACB37D10780E0080769
:10075000A9F70E9459100C94991A52CC682F8091D5
:100760003703813069F0E0913903F0913A03208139
:10077000909147039095922390834091370301C055
:1007800041E080E0A2C1682F80913703813069F099
:10079000E0913903F0913A03808190914703982BBF
:1007A00090834091370380E002C041E081E08DC139
:1007B000CF93C62F90913703913019F1903161F4A6
:1007C000E0913903F0913A03208190914703922BF5
:1007D0009083409137031DC09830E9F4E0913903CC
:1007E000F0913A03208190914703922B908340919E
:1007F0003703682F80E069D1409137036C2F80E088
:1008000008C041E0682F81E060D1409137036C2F30
:1008100081E0CF915AC1CF910895CF93DF931F927A
:100820001F92CDB7DEB769837A8398DF69817A81B9
:10083000872F0F900F90DF91CF91BACFCF92DF9299
:10084000EF92FF920F931F93CF93DF938C01F62EBD
:10085000E72EEA01D22EC32E80912D03813089F438
:1008600080913203909133039C01201B310B841B38
:10087000950BCD2DDC2DD22EC32E062F172FF82E43
:10088000E92EE09136038E2F90E0FC013A97ED318E
:10089000F10508F077C08827E357FF4F8F4F0C947E
:1008A0008D1A8AE25BDF802F6EDF8C2F6CDF8BE28C
:1008B00055DF8F2D5AC08AE251DF8E2D64DF8F2DD8
:1008C00062DF8C2D60DF8D2D5EDF8BE247DF812FB5
:1008D0005ADF802F58DF8D2F56DF8C2F48C07C2F9A
:1008E0006627602B712B86E498DF6D2D7C2D87E4C5
:1008F00094DF6F2D7E2D88E40DC0BE0186E38DDF71
:10090000B80187E38ADF6D2D7C2D88E386DF6F2DAC
:100910007E2D89E382DFB80180E27FDF6F2D7E2D9F
:1009200081E27BDF82E225C06F2D7E2D82E075DFC4
:10093000B80183E072DF6D2D7C2D86E06EDFBE0195
:1009400087E06BDF8FE015C08AE208DF812F1BDFB5
:10095000802F19DF8D2F17DF8C2F15DF8BE2FEDE46
:100960008E2D11DF8F2D0FDF8C2D0DDF8D2D0BDFE9
:100970008CE2DF91CF911F910F91FF90EF90DF906C
:10098000CF90ECCEDF91CF911F910F91FF90EF9020
:10099000DF90CF900895CF93C82FE2E1F6E0449125
:1009A000E8E5F6E02491E8EBF6E09491992309F468
:1009B0006BC0442309F455C050E0FA013197E2318D
:1009C000F10508F04EC08827E655FF4F8F4F0C9475
:1009D0008D1A809180008F7707C0809180008F7D75
:1009E00003C080918000877F809380003AC084B5E7
:1009F0008F7702C084B58F7D84BD33C08091B000F5
:100A00008F7703C08091B0008F7D8093B00029C0A4
:100A1000809190008F7707C0809190008F7D03C0F8
:100A200080919000877F809390001BC08091A000F0
:100A30008F7707C08091A0008F7D03C08091A000B8
:100A4000877F8093A0000DC0309120013F7707C0C1
:100A5000309120013F7D03C030912001377F3093DA
:100A60002001E92FF0E0EE0FFF1FEA56F94FA591A4
:100A7000B4918FB7F894EC91C11103C020952E2347
:100A800001C02E2B2C938FBFCF91089590E0FC01D5
:100A9000E05BF94F2491FC01E055F94F84918823E4
:100AA00099F090E0880F991FFC01E051FA4FA59151
:100AB000B491FC01EA56F94F859194918FB7F8945F
:100AC000EC91E22BEC938FBF0895483009F448C1B4
:100AD00018F4413041F00895403109F444C14131E6
:100AE00009F455C1089590913803943019F5E091B7
:100AF0004103F091420390914B03813019F48081BE
:100B0000982B03C08081909598239083E0914303B4
:100B1000F0914403908180914C03809589238083D8
:100B2000E0914303F0914403908180914C03892B21
:100B300080830FC0E0913903F0913A03909147030D
:100B4000813019F48081982B03C08081909598237F
:100B50009083E0914103F091420380914B03908197
:100B600067FF02C0892B02C0809589238083E091B2
:100B70004303F0914403908180914C038095892335
:100B80008083E0914303F0914403908180914C0372
:100B9000892B8083E0914103F091420380914B03C4
:100BA000908166FF02C0892B02C0809589238083D3
:100BB000E0914303F0914403908180914C03809530
:100BC00089238083E0914303F091440390818091D5
:100BD0004C03892B8083E0914103F0914203809183
:100BE0004B03908165FF02C0892B02C08095892349
:100BF0008083E0914303F0914403908180914C0302
:100C0000809589238083E0914303F0914403908190
:100C100080914C03892B8083E0914103F091420342
:100C200080914B03908164FF02C0892B02C08095A4
:100C300089238083E0914303F09144039081809164
:100C40004C03809589238083E0914303F091440312
:100C5000908180914C03892B8083E0914103F09136
:100C6000420380914B03908163FF02C0892B02C035
:100C7000809589238083E0914303F0914403908120
:100C800080914C03809589238083E0914303F09108
:100C90004403908180914C03892B8083E091410330
:100CA000F091420380914B03908162FF02C0892B37
:100CB00002C0809589238083E0914303F09144032F
:100CC000908180914C03809589238083E091430338
:100CD000F0914403908180914C03892B8083E091B3
:100CE0004103F091420380914B03908161FF02C068
:100CF000892B02C0809589238083E0914303F09182
:100D00004403908180914C03809589238083E091F6
:100D10004303F0914403908180914C03892B80839D
:100D2000E0914103F091420380914B03908160FF79
:100D300002C0892B02C0809589238083E091430300
:100D4000F0914403908180914C03809589238083A6
:100D5000E0914303F0914403908180914C03BCC027
:100D600018B862B902C082B968B9E0913B03F0914A
:100D70003C03908180914803809589238083E09192
:100D80003B03F0913C03908180914803A5C0A59856
:100D900024B3982F9071990F922B94BB90910201DC
:100DA000977E9093020190910201282F082E000C4B
:100DB000330B207C332743E0359527954A95E1F79F
:100DC000292B209302019EB1947C9EB92EB1382F1D
:100DD0003C70330F330F982F9370390F8072082EA9
:100DE000000C990B9595879595958795830F822B88
:100DF0008EB9E0914503F0914603908180914D03B7
:100E0000809589238083E0914503F091460390818A
:100E100080914D03892B8083E0914503F091460337
:100E2000908180914D03809589238083E0913D03DB
:100E3000F0913E03908180914903809589238083BE
:100E4000A59894B3862F8071880F892B84BB8091DD
:100E50000201877E8093020120910201862F062ED7
:100E6000000C990B807C992773E0959587957A956E
:100E7000E1F7822B809302018EB1847C8EB98EB112
:100E8000962F9C70990F990F262F2370920F6072E6
:100E9000062E000C770B7595679575956795690F0C
:100EA000682B6EB9E0913B03F0913C0390818091F7
:100EB0004803809589238083E0913B03F0913C03B4
:100EC000908180914803892B8083E0913D03F091CC
:100ED0003E03908180914903892B808308958F92EE
:100EE0009F92AF92BF92CF92DF92EF92FF926B01EF
:100EF0007C012BD74B015C01C60ED71EE81EF91EE4
:100F000024D7681579058A059B0528F0C616D706EB
:100F1000E806F906A8F7FF90EF90DF90CF90BF901A
:100F2000AF909F908F90089520912D038091320370
:100F30009091330340912E0350912F03211102C051
:100F40009C0102C09A01AC0160E070E080E090E09A
:100F500075CC8F929F92AF92BF92CF92DF92EF9219
:100F6000FF926A017B0182B9CB01BA0120E130E036
:100F700040E050E00E94521A49015A0180E090E09E
:100F8000DC0188159905AA05BB050CF064C2E09147
:100F90003B03F0913C0330812091480320952323AB
:100FA0002083E0913B03F0913C0330812091480382
:100FB000232B2083E0913B03F0913C03308120916F
:100FC0004803209523232083E0913B03F0913C03C9
:100FD000308120914803232B2083E0913B03F09143
:100FE0003C03308120914803209523232083E09106
:100FF0003B03F0913C03308120914803232B208355
:10100000E0913B03F0913C0330812091480320950F
:1010100023232083E0913B03F0913C033081209116
:101020004803232B2083E0913B03F0913C03308164
:1010300020914803209523232083E0913B03F091E6
:101040003C03308120914803232B2083E0913B0314
:10105000F0913C0330812091480320952323208385
:10106000E0913B03F0913C03308120914803232B16
:101070002083E0913B03F0913C03308120914803B1
:10108000209523232083E0913B03F0913C033081A2
:1010900020914803232B2083E0913B03F0913C03F4
:1010A000308120914803209523232083E0913B0346
:1010B000F0913C03308120914803232B2083E09161
:1010C0003B03F0913C03308120914803209523237A
:1010D0002083E0913B03F0913C0330812091480351
:1010E000232B2083E0913B03F0913C03308120913E
:1010F0004803209523232083E0913B03F0913C0398
:10110000308120914803232B2083E0913B03F09111
:101110003C03308120914803209523232083E091D4
:101120003B03F0913C03308120914803232B208323
:10113000E0913B03F0913C033081209148032095DE
:1011400023232083E0913B03F0913C0330812091E5
:101150004803232B2083E0913B03F0913C03308133
:1011600020914803209523232083E0913B03F091B5
:101170003C03308120914803232B2083E0913B03E3
:10118000F0913C0330812091480320952323208354
:10119000E0913B03F0913C03308120914803232BE5
:1011A0002083E0913B03F0913C0330812091480380
:1011B000209523232083E0913B03F0913C03308171
:1011C00020914803232B2083E0913B03F0913C03C3
:1011D000308120914803209523232083E0913B0315
:1011E000F0913C03308120914803232B2083E09130
:1011F0003B03F0913C033081209148032095232349
:101200002083E0913B03F0913C033081209148031F
:10121000232B2083E0913B03F0913C03308120910C
:101220004803209523232083E0913B03F0913C0366
:10123000308120914803232B2083E0913B03F091E0
:101240003C03308120914803209523232083E091A3
:101250003B03F0913C03308120914803232B2083F2
:10126000E0913B03F0913C033081209148032095AD
:1012700023232083E0913B03F0913C0330812091B4
:101280004803232B2083E0913B03F0913C03308102
:1012900020914803209523232083E0913B03F09184
:1012A0003C03308120914803232B2083E0913B03B2
:1012B000F0913C0330812091480320952323208323
:1012C000E0913B03F0913C03308120914803232BB4
:1012D0002083E0913B03F0913C033081209148034F
:1012E000209523232083E0913B03F0913C03308140
:1012F00020914803232B2083E0913B03F0913C0392
:10130000308120914803209523232083E0913B03E3
:10131000F0913C03308120914803232B2083E091FE
:101320003B03F0913C033081209148032095232317
:101330002083E0913B03F0913C03308120914803EE
:10134000232B2083E0913B03F0913C0330812091DB
:101350004803209523232083E0913B03F0913C0335
:10136000308120914803232B2083E0913B03F091AF
:101370003C03308120914803209523232083E09172
:101380003B03F0913C03308120914803232B2083C1
:10139000E0913B03F0913C0330812091480320957C
:1013A00023232083E0913B03F0913C033081209183
:1013B0004803232B2083E0913B03F0913C033081D1
:1013C00020914803209523232083E0913B03F09153
:1013D0003C03308120914803232B2083E0913B0381
:1013E000F0913C03308120914803209523232083F2
:1013F000E0913B03F0913C03308120914803232B83
:101400002083E0913B03F0913C03408130914803FD
:10141000309534233083E0913B03F0913C032081ED
:1014200030914803322B3083E0913B03F0913C0331
:10143000408130914803309534233083E0913B0361
:10144000F0913C03208130914803322B3083019688
:10145000A11DB11D96CDD701C6018F709927AA276E
:10146000BB27892B8A2B8B2BE1F1C701B60120E129
:1014700030E040E050E00E94521AC12CD12C76019D
:101480006C157D058E059F0564F1E0913B03F0919D
:101490003C03308120914803209523232083E09151
:1014A0003B03F0913C03308120914803232B2083A0
:1014B000E0913B03F0913C0330812091480320955B
:1014C00023232083E0913B03F0913C033081209162
:1014D0004803232B20832FEFC21AD20AE20AF20A12
:1014E000CFCFFF90EF90DF90CF90BF90AF909F90C5
:1014F0008F9008958F929F92AF92BF92CF92DF927A
:10150000EF92FF9269017A0182B968B9CA01B90103
:1015100020E130E040E050E00E94521A49015A01B7
:1015200080E090E0DC0188159905AA05BB050CF068
:1015300034C1E0913B03F0913C033081209148039A
:10154000209523232083E0913B03F0913C033081DD
:1015500020914803232B2083E0913B03F0913C032F
:10156000308120914803209523232083E0913B0381
:10157000F0913C03308120914803232B2083E0919C
:101580003B03F0913C0330812091480320952323B5
:101590002083E0913B03F0913C033081209148038C
:1015A000232B2083E0913B03F0913C033081209179
:1015B0004803209523232083E0913B03F0913C03D3
:1015C000308120914803232B2083E0913B03F0914D
:1015D0003C03308120914803209523232083E09110
:1015E0003B03F0913C03308120914803232B20835F
:1015F000E0913B03F0913C0330812091480320951A
:1016000023232083E0913B03F0913C033081209120
:101610004803232B2083E0913B03F0913C0330816E
:1016200020914803209523232083E0913B03F091F0
:101630003C03308120914803232B2083E0913B031E
:10164000F0913C033081209148032095232320838F
:10165000E0913B03F0913C03308120914803232B20
:101660002083E0913B03F0913C03308120914803BB
:10167000209523232083E0913B03F0913C033081AC
:1016800020914803232B2083E0913B03F0913C03FE
:10169000308120914803209523232083E0913B0350
:1016A000F0913C03308120914803232B2083E0916B
:1016B0003B03F0913C033081209148032095232384
:1016C0002083E0913B03F0913C033081209148035B
:1016D000232B2083E0913B03F0913C033081209148
:1016E0004803209523232083E0913B03F0913C03A2
:1016F000308120914803232B2083E0913B03F0911C
:101700003C03308120914803209523232083E091DE
:101710003B03F0913C03308120914803232B20832D
:10172000E0913B03F0913C033081209148032095E8
:1017300023232083E0913B03F0913C0330812091EF
:101740004803232B2083E0913B03F0913C0340812D
:1017500030914803309534233083E0913B03F0917E
:101760003C03208130914803322B3083E0913B03CE
:10177000F0913C034081309148033095342330830D
:10178000E0913B03F0913C03208130914803322BE0
:1017900030830196A11DB11DC6CED701C6018F7041
:1017A0009927AA27BB27892B8A2B8B2B49F1C701A5
:1017B000B60120E130E040E050E00E94521AC12C16
:1017C000D12C76016C157D058E059F05CCF0E0913E
:1017D0003B03F0913C033081209148032095232363
:1017E0002083E0913B03F0913C033081209148033A
:1017F000232B20832FEFC21AD20AE20AF20AE2CF89
:10180000FF90EF90DF90CF90BF90AF909F908F9020
:1018100008950F931F93CF93DF93FC01EA0157FFC5
:1018200005C0640F751FD195C195D109A0913D03E5
:10183000B0913E032C9190914903909592239C93F3
:101840009B012C0F3D1FAF01CF010E941E04809110
:1018500037038031A9F4E0913903F0913A03908184
:1018600080914703892B80839E01DD0F440B550B2C
:1018700060912A0370E08091290390E03BDE27C04D
:101880008830C1F49091290380912A03981312C0E3
:10189000E0913903F0913A03908180914703892BBD
:1018A0008083AE01DD0F660B770B8091290390E0FA
:1018B00050DB0DC000E010E060912A038091290305
:1018C0000E94D8030F5F1F4FC017D107ACF7E091FC
:1018D0003D03F0913E03908180914903892B8083E1
:1018E000DF91CF911F910F911FCB0F931F93CF9338
:1018F000DF93EA0157FF05C0840F951FD195C1956D
:10190000D109E0913D03F0913E03408130914903BC
:10191000309534233083AC014C0F5D1F9B010E9436
:101920001E04809137038031A9F4E0913903F091CE
:101930003A03908180914703892B80839E01DD0FBC
:10194000440B550B60912A0370E08091290390E0CD
:10195000D1DD27C08830C1F49091290380912A03FA
:10196000981312C0E0913903F0913A03908180916D
:101970004703892B8083AE01DD0F660B770B8091C7
:10198000290390E0E6DA0DC000E010E060912A0340
:10199000809129030E94D8030F5F1F4FC017D10702
:1019A000ACF7E0913D03F0913E03908180914903B3
:1019B000892B8083DF91CF911F910F91B5CA089534
:1019C00080E090E00895FC01538D448D252F30E098
:1019D000842F90E0821B930B541710F0CF9608953C
:1019E00001970895FC01918D828D981761F0828D89
:1019F000DF01A80FB11D5D968C91928D9F5F9F7343
:101A0000928F90E008958FEF9FEF0895FC01918DE4
:101A1000828D981731F0828DE80FF11D858D90E051
:101A200008958FEF9FEF0895FC01918D228D892FEE
:101A300090E0805C9F4F821B91098F7399270895D6
:101A400084E492E0F1DF21E0892B09F420E0822F89
:101A50000895FC01848DDF01A80FB11DA35ABF4F6B
:101A60002C91848D90E001968F739927848FA6899D
:101A7000B7892C93A089B1898C9180648C93938DC4
:101A8000848D981306C00288F389E02D80818F7DB4
:101A900080830895EF92FF920F931F93CF93DF936C
:101AA000EC0181E0888F9B8D8C8D981305C0E889AF
:101AB000F989808185FD23C0F62E0B8D10E00F5F24
:101AC0001F4F0F731127E02E8C8DE8120BC00FB63D
:101AD00007FCFACFE889F989808185FFF5CFCE012F
:101AE000B8DFF2CF8B8DFE01E80FF11DE35AFF4FF7
:101AF000F0820B8FEA89FB898081806207C0EE89C2
:101B0000FF896083E889F98980818064808381E02E
:101B100090E0DF91CF911F910F91FF90EF9008958A
:101B2000CF93DF93EC01888D8823C1F0EA89FB898C
:101B3000808185FD05C0A889B9898C9186FD0EC07C
:101B40000FB607FCF5CF808185FFF2CFA889B98950
:101B50008C9185FFEDCFCE017CDFE8CFDF91CF9177
:101B6000089580E090E0892B19F06ADF811125C08B
:101B700080E090E0892B41F080E090E0892B21F01B
:101B80000E94000081111CC080E090E0892B41F090
:101B900080E090E0892B21F00E940000811113C0A9
:101BA00080E090E0892BA1F080E090E0892B81F02B
:101BB0000E94000081110AC008950E940000D8CF41
:101BC0000E940000E1CF0E940000EACF0C940000C8
:101BD00008953FB7F89480915F0390916003A091BE
:101BE0006103B091620326B5A89B05C02F3F19F091
:101BF0000196A11DB11D3FBFBA2FA92F982F88278D
:101C0000820F911DA11DB11DBC01CD0142E0660FE7
:101C1000771F881F991F4A95D1F708951F920F9239
:101C20000FB60F9211240BB60F922F933F934F9341
:101C30005F936F937F938F939F93AF93BF93EF9334
:101C4000FF9384E492E005DFFF91EF91BF91AF91A4
:101C50009F918F917F916F915F914F913F912F91C4
:101C60000F900BBE0F900FBE0F901F9018951F92F4
:101C70000F920FB60F9211240BB60F922F938F93E2
:101C80009F93EF93FF93E0915402F091550280816E
:101C9000E0915A02F0915B0282FD12C09081809126
:101CA0005D028F5F8F7320915E02821751F0E09189
:101CB0005D02F0E0EC5BFD4F958F80935D0201C00B
:101CC0008081FF91EF919F918F912F910F900BBE8B
:101CD0000F900FBE0F901F9018958F929F92AF920A
:101CE000BF92CF92DF92EF92FF926B017C0171DF86
:101CF0004B015C01C114D104E104F104E9F069DF96
:101D0000DC01CB0188199909AA09BB09883E9340D7
:101D1000A105B10578F321E0C21AD108E108F10864
:101D200088EE880E83E0981EA11CB11CC114D1045A
:101D3000E104F10421F7DECFFF90EF90DF90CF9028
:101D4000BF90AF909F908F9008952FB7F8946091B7
:101D50005B0370915C0380915D0390915E032FBFE4
:101D600008951F920F920FB60F9211242F933F9355
:101D70008F939F93AF93BF9380915B0390915C038C
:101D8000A0915D03B0915E0330915A0323E0230FCD
:101D90002D3720F40196A11DB11D05C026E8230FA3
:101DA0000296A11DB11D20935A0380935B0390936B
:101DB0005C03A0935D03B0935E0380915F039091F9
:101DC0006003A0916103B09162030196A11DB11D52
:101DD00080935F0390936003A0936103B0936203C9
:101DE000BF91AF919F918F913F912F910F900FBE17
:101DF0000F901F901895CF92DF92EF92FF920F9362
:101E00001F93CF93DF936C017A018B01C0E0D0E088
:101E1000CE15DF0589F0D8016D918D01D601ED91C8
:101E2000FC910190F081E02DC6011995892B11F4E8
:101E30007E0102C02196ECCFC701DF91CF911F91A7
:101E40000F91FF90EF90DF90CF900895CF93DF93A5
:101E5000FC01C9E2D3E0AC89BD893C9198A1909581
:101E600093239C939B01AF01CF010E941E048881A4
:101E700090E0982F88272981822B682F892F0E9434
:101E8000D803EC89FD89908188A1892B8083DF911B
:101E9000CF914AC80E94951A2F923F924F925F921B
:101EA0006F927F928F929F92AF92BF92CF92DF926A
:101EB000EF92FF920F931F93CF93DF937C01EB017F
:101EC0008A016901481759072CF4982F8F2D7A0140
:101ED000092F182FCC16DD062CF49C2F8D2FE60130
:101EE000C92ED82E28014E185F0885E048165104E7
:101EF0000CF451C016012C1A3D0A85E02816310455
:101F00000CF449C04E018FEF881A980A37018FEF01
:101F1000681A780AB401C30199DF580181E0A81A50
:101F2000B108B401C50192DF460181E0881A910829
:101F3000B401C3018BDFB401C50188DF84E0481A16
:101F40005108570182E0A80EB11CA201BE01C501D3
:101F5000CCDCA201B601C501C8DC84E0281A310836
:101F60002296A101BE01C70154DCA101BE01C80136
:101F7000DF91CF911F910F91FF90EF90DF90CF9065
:101F8000BF90AF909F908F907F906F905F904F9099
:101F90003F902F903ECCDF91CF911F910F91FF90FA
:101FA000EF90DF90CF90BF90AF909F908F907F90F9
:101FB0006F905F904F903F902F90089580912D03E8
:101FC000811105C080912E0390912F0304C0809150
:101FD0003203909133030196089580912D0381116E
:101FE00005C0809132039091330304C080912E0389
:101FF00090912F03019608956115710579F0FB0109
:1020000001900020E9F73197AF01461B570BDC0127
:10201000ED91FC910280F381E02D199480E090E035
:1020200008954F925F926F927F92EF92FF920F937B
:102030001F93CF93DF93CDB7DEB7A1970FB6F89478
:10204000DEBF0FBECDBF7C01FA01CB0119A2223049
:1020500008F42AE08E010F5D1F4F422E512C612C97
:10206000712CBF01A30192010E94301AF901CA012B
:10207000015011096A3014F4605D01C0695CD80137
:102080006C93232B242B252B61F7B801C701B4DFF8
:10209000A1960FB6F894DEBF0FBECDBFDF91CF91F2
:1020A0001F910F91FF90EF907F906F905F904F90F6
:1020B0000895789484B5826084BD84B5816084BDC0
:1020C00085B5826085BD85B5816085BD80916E00D6
:1020D000816080936E001092810080918100826007
:1020E0008093810080918100816080938100809144
:1020F00080008160809380008091B1008460809333
:10210000B1008091B00081608093B0008091910017
:102110008260809391008091910081608093910012
:10212000809190008160809390008091A1008260F6
:102130008093A1008091A10081608093A100809193
:10214000A00081608093A000809121018260809333
:1021500021018091210181608093210180912001E2
:1021600081608093200180917A00846080937A005E
:1021700080917A00826080937A0080917A008160F9
:1021800080937A0080917A00806880937A00109220
:10219000C10010922503109226031092270310927B
:1021A00028031092E3021092E4021092E5021092CA
:1021B000E60268EB7BE080E090E00E946F0784E439
:1021C00092E09093240380932303E0915402F091D2
:1021D000550282E08083E0915002F091510210821A
:1021E000E0915202F091530280E1808310925C02F0
:1021F000E0915802F091590286E08083E091560206
:10220000F0915702808180618083E0915602F091C5
:102210005702808188608083E0915602F0915702D6
:10222000808180688083E0915602F091570280811E
:102230008F7D80838ADD6093E3027093E402809354
:10224000E5029093E60266E172E0809123039091AB
:102250002403D2DE6AE070E080E090E00E946F0725
:1022600081E08093F70280917B00877F80937B00E1
:1022700080E480937C0080917A00806480937A006F
:1022800080917A0086FDFCCF609178008091790082
:1022900070E0782B072E000C880B990B61157105E7
:1022A0008105910511F00E94181A81E080932D0399
:1022B00080914E030E94460580914F030E9446057F
:1022C000809150030E944605809151038F3F11F089
:1022D0000E94460580913703813131F0813041F40D
:1022E00080913803853021F4809152030E94460585
:1022F00080913703813079F0813131F09FEF91B9CE
:10230000803149F497B907C088E18093010180E2E8
:1023100083BB8BE38DB9E0913F03F0914003908143
:1023200080914A03892B808365E070E080E090E033
:10233000D4DCE0913F03F0914003908180914A0307
:102340008095892380836FE070E080E090E0C5DCB9
:10235000E0913F03F0914003908180914A03892BE3
:1023600080836FE070E080E090E0B7DCE0913D03B7
:10237000F0913E0390818091490380958923808369
:10238000E09136038E2F90E0FC013C97EB31F10594
:1023900008F0EBC48827EE58FF4F8F4F0C948D1A2E
:1023A00082EE0E94AE0383E20E94C30382E00E9499
:1023B000C30384E50E94C30380EE0E94AE0381E064
:1023C0000E94C3036AE070E080E090E086DC80EE6B
:1023D0000E94AE0383E00E94C3036AE070E080E0E5
:1023E00090E07BDC81E00E94AE0364E670E080E078
:1023F00090E073DC86EE0E94AE0381E00E94C3038E
:102400008FE10E94C3038FEF0E94C30380EB0E9401
:10241000AE0380E20E94C30380E00E94C30381E018
:102420000E94C3038FED0E94C30381E00E94C30397
:102430008FE00E94C30380E00E94C30384EB0E94EC
:10244000AE0382E00E94C30383E10E94C30380E0E5
:102450000E94C30388E00E94C3038BE20E94C3036F
:1024600080E00E94C30382E00E94C30380E00E94D8
:10247000C30386EB0E94AE0381E00E94C30380E2A7
:102480000E94C30380E00E94C30384E00E94C30350
:102490008CE00E94C30380E00E94C30382E00E949C
:1024A000C3038AEB0E94AE038FE00E94C30388EB54
:1024B0000E94AE0387E00E94C30381E00E94C30331
:1024C00086E30E94AE038AE20E94C30380EF0E946B
:1024D000AE0383E00E94C30361E070E080E090E01F
:1024E000FCDB88EB0E94AE038FE00E94C30381E017
:1024F0000E94C3038AEB0E94AE0381E00E94C303E3
:102500002FE031E04FED51E056C182EE0E94AE0364
:102510008EE10E94C30382E00E94C30384E50E940F
:10252000C30380EE0E94AE0381E00E94C3036AE011
:1025300070E080E090E0D1DB80EE0E94AE0383E0AB
:102540000E94C3036AE070E080E090E0C6DB81E0B7
:102550000E94AE0364E670E080E090E0BEDB86EEB1
:102560000E94AE0383E00E94C3038FEF0E94C30367
:102570008FEF0E94C30380EB0E94AE0380E20E94B3
:10258000C30380E00E94C30383E00E94C3038FE182
:102590000E94C30381E00E94C3038FED0E94C30326
:1025A00080E00E94C30384EB0E94AE0383E00E949C
:1025B000C30380EA0E94C30380E00E94C3038EE24B
:1025C0000E94C30380E30E94C30380E00E94C30310
:1025D0008FE00E94C30380E00E94C30386EB0E9449
:1025E000AE0382E00E94C3038DE00E94C30380E03B
:1025F0000E94C30380E10E94C30380E10E94C303E1
:1026000080E00E94C30388E00E94C3038AEB0E941B
:10261000AE038FE00E94C30388EB0E94AE0387E005
:102620000E94C30381E00E94C30386E30E94AE03BD
:1026300081E20E94C30380EF0E94AE0383E00E9408
:10264000C30361E070E080E090E047DB88EB0E942C
:10265000AE038FE00E94C30381E00E94C3038AEBB4
:102660000E94AE0381E00E94C303A1C082EE0E94DB
:10267000AE0383E20E94C30382E00E94C30384E0AE
:102680000E94C30380EE0E94AE0381E00E94C30358
:102690006AE070E080E090E020DB80EE0E94AE0314
:1026A00083E00E94C3036AE070E080E090E015DB05
:1026B00081E00E94AE0364E670E080E090E00DDB14
:1026C00086EE0E94AE0384E00E94C30383E90E9469
:1026D000C30380EE0E94C30380EB0E94AE0380E040
:1026E0000E94C30380E00E94C30383E00E94C303EF
:1026F0008FE10E94C30381E00E94C3038FED0E941B
:10270000C30380E00E94C30384EB0E94AE0383E016
:102710000E94C30380EA0E94C30380E00E94C303B7
:102720008EE20E94C30380E30E94C30380E00E9404
:10273000C3038FE00E94C30380E00E94C30386EBC3
:102740000E94AE0382E00E94C3038DE00E94C30397
:1027500080E00E94C30380E10E94C30380E10E94E5
:10276000C30380E00E94C30388E00E94C3038AEB96
:102770000E94AE0385E00E94C30388EB0E94AE0373
:1027800087E00E94C30381E00E94C30386E30E94A6
:10279000AE0382E20E94C30380EF0E94AE0383E097
:1027A0000E94C3036AE070E080E090E096DA2FEDCB
:1027B00031E04FE153E060E070E080E090E00E94A3
:1027C0001E0489E20E94AE038EEB0E94AE0386E0F7
:1027D0000E94C30380EF0E94C30381E00E94C303F1
:1027E00080EF0E94C30380E00E94C30380E00E9448
:1027F000C30380ED0E94AE038DE00E94C303EBC1D2
:102800008BEC0E94AE0389E30E94C3038CE20E941A
:10281000C30380E00E94C30384E30E94C30382E0F9
:102820000E94C3038FEC0E94AE0380E00E94C303AA
:1028300081EC0E94C30380E30E94C30388EE0E94E0
:10284000AE0385E80E94C30380E00E94C30388E7CB
:102850000E94C3038AEE0E94AE0380E00E94C3037D
:1028600080E00E94C3038DEE0E94AE0384E60E94C6
:10287000C30383E00E94C30382E10E94C30381E893
:102880000E94C30387EF0E94AE0380E20E94C3034D
:1028900080EC0E94AE0389E10E94C30381EC0E9498
:1028A000AE0381E10E94C30385EC0E94AE038DE379
:1028B0000E94C3038BE20E94C30387EC0E94AE0315
:1028C00081EC0E94C30386E30E94AE0388E40E9469
:1028D000C3038AE30E94AE0385E50E94C30381EB34
:1028E0000E94AE0380E00E94C30388E10E94C303FC
:1028F00086EB0E94AE0388E00E94C30382E80E9438
:10290000C30387E25BC181E10E94AE0364E170E032
:1029100080E090E0E2D980EE0E94AE0380E00E9469
:10292000C30383E00E94C30389E00E94C30388E0DD
:102930000E94C30386E10E94C3038AE00E94C3038E
:102940008FE30E94C30388E70E94C3038CE40E94C4
:10295000C30389E00E94C3038AE00E94C30388E0A6
:102960000E94C30386E10E94C3038AE10E94C3035D
:102970008FE00E94C30381EE0E94AE0380E00E94BC
:10298000C30386E10E94C30389E10E94C30383E07D
:102990000E94C3038FE00E94C30385E00E94C3032B
:1029A00082E30E94C30385E40E94C30386E40E947D
:1029B000C30384E00E94C3038EE00E94C3038DE042
:1029C0000E94C30385E30E94C30387E30E94C303FD
:1029D0008FE00E94C30380EC0E94AE0387E10E9457
:1029E000C30385E10E94C30381EC0E94AE0381E42E
:1029F0000E94C30385EC0E94AE0380E00E94C303E3
:102A000082E10E94C30380E80E94C30386E30E9420
:102A1000AE0388E40E94C3038AE30E94AE0385E507
:102A20000E94C30380EB0E94AE0380E00E94C303B8
:102A300081EB0E94AE0380EA0E94C30384EB0E94F4
:102A4000AE0382E00E94C30386EB0E94AE0382E0E5
:102A50000E94C30382E00E94C30389EE0E94AE037A
:102A600080E00E94C30387EF0E94AE0389EA0E94C0
:102A7000C30381E50E94C3038CE20E94C30382E882
:102A80000E94C30381E10E94AE0368E770E080E02A
:102A900090E023D967C181E10E94AE0368E770E04E
:102AA00080E090E01AD988EC0E94AE038FEF0E947C
:102AB000C30383E90E94C30382E40E94C30386E345
:102AC0000E94AE0388EC0E94C3038AE30E94AE0317
:102AD00085E50E94C30380EC0E94AE0380E10E9462
:102AE000C30380E10E94C30381EC0E94AE0386E32E
:102AF0000E94C30385EC0E94AE0383EC0E94C303D3
:102B000080EE0E94AE0380E00E94C30385E00E9435
:102B1000C30388E00E94C30382E00E94C3038AE1EA
:102B20000E94C3038CE00E94C30382E40E94C3039B
:102B30008AE70E94C30384E50E94C30388E00E94E1
:102B4000C3038DE00E94C3038CE00E94C30383E2B1
:102B50000E94C30385E20E94C3038FE00E94C30367
:102B600081EE0E94AE0380E00E94C30389E20E94CE
:102B7000C3038FE20E94C30383E00E94C3038FE07C
:102B80000E94C30385E00E94C30382E40E94C30342
:102B900085E50E94C30383E50E94C30386E00E948B
:102BA000C3038FE00E94C3038CE00E94C30388E349
:102BB0000E94C3038AE30E94C3038FE00E94C30301
:102BC00081E10E94AE0368E770E080E090E085D884
:102BD00089E20E94AE038CE2C6C081E10E94AE038E
:102BE00068E770E080E090E078D886E20E94AE036B
:102BF00084E00E94C30381EB0E94AE0388E00E9440
:102C0000C30380E10E94C30380EC0E94AE038CE00A
:102C10000E94C30385E00E94C30381EC0E94AE03BF
:102C200082E00E94C30385EC0E94AE038EE40E9402
:102C3000C30380E30E94C30387EC0E94AE0380ECD1
:102C40000E94C3038AE30E94AE0385E00E94C3038F
:102C50008AE20E94AE0380E00E94C30380E00E94EB
:102C6000C30380E00E94C3038FE70E94C3038BE28B
:102C70000E94AE0380E00E94C30380E00E94C30371
:102C800080E00E94C3038FE90E94C30386E30E9491
:102C9000AE0380EC0E94C30382EF0E94AE0381E08A
:102CA0000E94C30380EE0E94AE038FE30E94C30321
:102CB00081E30E94C3038DE20E94C3038FE20E945E
:102CC000C30388E20E94C3038DE00E94C30389E529
:102CD0000E94C30388EA0E94C30384E40E94C303E2
:102CE00088E10E94C3038FE10E94C30380E10E9438
:102CF000C30387E00E94C30382E00E94C30380E015
:102D00000E94C30381EE0E94AE0380E00E94C303D1
:102D10008EE00E94C30382E10E94C30380E10E940F
:102D2000C30387E10E94C30382E10E94C30386E2DA
:102D30000E94C30387E50E94C3038BE30E94C30381
:102D400087E00E94C30380E20E94C3038FE20E94D7
:102D5000C30388E30E94C3038DE30E94C3038FE390
:102D60000E94C30389E20E94AE03E0913D03F0910B
:102D70003E03908180914903892B80838FEF80935C
:102D8000290380932A0310922B0310922C03109294
:102D90005903109254031092530388E00E94460591
:102DA00081E00E94CB04E8E7F1E0F0935403E09364
:102DB0005303E491E0935503E9E7F1E0E491E093F4
:102DC0005603EAE7F1E0E491E0935703EBE7F1E023
:102DD000E491E0935803F4EFCF2EDD24D394E12C5B
:102DE000F12CC8EF0E94A50E672B682B692B41F4CC
:102DF0000E94A50E623071058105910508F4FEC0A0
:102E00000E94A50E6093400270934102809342029B
:102E10009093430200913C0210913D0220913E02AA
:102E200030913F02601771078207930740F4609367
:102E30003C0270933D0280933E0290933F020091CA
:102E40003C0210913D0220913E0230913F024B0125
:102E50005C01801A910AA20AB30A950184010A3F13
:102E600011052105310508F4C9C060933C02709337
:102E70003D0280933E0290933F02C092EF02D092B7
:102E8000F002E092F102F092F2021092F30210923C
:102E9000F4021092F5021092F6028091E7029091EE
:102EA000E802A091E902B091EA028093EB029093CC
:102EB000EC02A093ED02B093EE020E94A50E609387
:102EC000E7027093E8028093E9029093EA020E947D
:102ED000A50E6093E3027093E4028093E502909361
:102EE000E6020E94A50E4B015C0168E272E080914F
:102EF00023039091240380D82AE041E050E060E071
:102F000070E080912303909124038BD86FE272E0EC
:102F100080912303909124036FD82AE0B501A40186
:102F200080912303909124037CD861E372E0809127
:102F300023039091240360D88091E7029091E802E6
:102F4000A091E902B091EA02B501A401481B590B16
:102F50006A0B7B0B2AE0809123039091240361D8B4
:102F600061E372E0809123039091240345D840915E
:102F7000E7025091E8026091E9027091EA028091C3
:102F8000EB029091EC02A091ED02B091EE02481B91
:102F9000590B6A0B7B0B2AE0809123039091240349
:102FA00040D863E372E0809123039091240324D8F6
:102FB0000E94A50EAB01BC012AE0809123039091F1
:102FC00024032FD8009123031091240365E372E0BA
:102FD000C80112D865E272E0C8010ED862E070E064
:102FE00080E090E00E946F070E94A50E6093E702C8
:102FF0007093E8028093E9029093EA02E0913D0326
:10300000F0913E03908180914903809589238083CC
:103010000E94940780913703813049F0E091390391
:10302000F0913A03908180914703892B8083E0914E
:10303000370340912E0350912F036091300370911C
:1030400031038091320390913303A0913403B09106
:103050003503E031B1F49A01AB012F5F3F4F4F4F81
:103060005F4FBC01CD016F5F7F4F8F4F9F4FE9D105
:103070009B01AC0160E070E080E090E00E947A0A81
:1030800053C0E830A1F49A01AB012F5F3F4F4F4F7F
:103090005F4FBC01CD016F5F7F4F8F4F9F4FD1D1ED
:1030A000AB01BC0180E090E00E94A9073DC0812CEB
:1030B000912C540180912E0390912F03A091300305
:1030C000B09131039C01AD012F5F3F4F4F4F5F4FD8
:1030D0008091320390913303A0913403B091350372
:1030E000BC01CD016F5F7F4F8F4F9F4FAAD18616D6
:1030F0009706A806B906C4F440913703413019F089
:1031000060E080E009C041E060E081E00E94650588
:103110004091370360E081E00E9465058FEF881AD7
:10312000980AA80AB80AC6CFE0913D03F0913E0381
:10313000908180914903892B8083C0932903109249
:103140002A030E94ED0F8C010E94DE0F97FD01966D
:10315000AC0155954795980160E070E080E090E003
:103160000E944C0F0E94ED0F8C010E94DE0FAC01FB
:10317000980117FF02C02F5F3F4F35952795BA0181
:1031800057FF02C06F5F7F4FCB019595879560E039
:1031900070E001960E944C0F0E94ED0F8C010E947E
:1031A000DE0FAC01B80117FF02C06F5F7F4F75954E
:1031B00067956F5F7F4FFA0157FD3196CF01959567
:1031C0008795980101960E944C0F60EA76E881E0AD
:1031D00090E00E946D0E0E94B10D04CE1092470245
:1031E0001092460288EE93E0A0E0B0E0809348029F
:1031F00090934902A0934A02B0934B0288E092E078
:10320000909345028093440285EC90E090935102A4
:103210008093500284EC90E090935302809352028A
:1032200080EC90E0909355028093540281EC90E002
:10323000909357028093560282EC90E0909359024B
:103240008093580286EC90E090935B0280935A0240
:1032500010925D0210925E0210925F021092600264
:103260001092E7021092E8021092E9021092EA022C
:103270001092EB021092EC021092ED021092EE020C
:103280001092EF021092F0021092F1021092F202EC
:103290001092F3021092F4021092F5021092F602CC
:1032A0008FED91E0A0E0B0E080932E0390932F0388
:1032B000A0933003B09331038FE193E0A0E0B0E03E
:1032C0008093320390933303A0933403B093350378
:1032D00080E1809337038DE08093360386E280930C
:1032E0004E0387E280934F0388E28093500389E284
:1032F00080935103109252038FEF81B987B9E6EDA5
:10330000F6E0E491F0E0EE0FFF1FEA56F94F8591E9
:10331000949190933A0380933903E6E7F6E0E491C1
:10332000E0934703E7EDF6E0E491F0E0EE0FFF1FD6
:10333000EA56F94F8591949190933C0380933B0317
:10334000E7E7F6E0E491E0934803E8EDF6E0E49186
:10335000F0E0EE0FFF1FEA56F94F8591949190939C
:103360003E0380933D03E8E7F6E0E491E0934903F0
:10337000E9EDF6E0E491F0E0EE0FFF1FEA56F94FB9
:10338000859194919093400380933F03E9E7F6E0A1
:10339000E491E0934A0308958F929F92AF92BF9277
:1033A000CF92DF92EF92FF92CF93DF93EC0168818F
:1033B00079818A819B81611571058105910521F4CF
:1033C00064E279ED8BE597E02DE133EF41E050E0E9
:1033D00069D049015A019B01AC01A7EAB1E47ED052
:1033E0006B017C01ACEEB4EFA501940183D0DC014C
:1033F000CB018C0D9D1DAE1DBF1DB7FF03C00197F6
:10340000A109B04888839983AA83BB83BC01CD01FD
:103410009F77DF91CF91FF90EF90DF90CF90BF909B
:10342000AF909F908F900895B7CF80E092E0B4CF97
:103430006093000270930102809302029093030252
:103440000895DB018F939F9349D0BF91AF91A29FC5
:10345000800D911DA39F900DB29F900D1124089592
:10346000A1E21A2EAA1BBB1BFD010DC0AA1FBB1F88
:10347000EE1FFF1FA217B307E407F50720F0A21BFA
:10348000B30BE40BF50B661F771F881F991F1A9467
:1034900069F760957095809590959B01AC01BD0191
:1034A000CF010895052E97FB16F400940FD057FD19
:1034B00005D0D6DF07FC02D046F408C050954095F1
:1034C000309521953F4F4F4F5F4F089590958095D0
:1034D000709561957F4F8F4F9F4F08950FD0A59F97
:1034E000900DB49F900DA49F800D911D11240895FF
:1034F000B7FFF4CFF3DF821B930B0895A29FB001B7
:10350000B39FC001A39F700D811D1124911DB29F17
:10351000700D811D1124911D0895EE0FFF1F881F4E
:103520008BBF0790F691E02D199481E090E0F8941C
:0635300000C0F894FFCF7B
:1035360001000000000000004A0DFB0EE30C900D98
:10354600140DF20C060D564D4450565F317C315F1A
:10355600564D4450560D0A00564D4450455F003AAC
:0C356600323A007C005F564D4450450096
:020000023000CC
:10E000000D9489F10D94B2F10D94B2F10D94B2F129
:10E010000D94B2F10D94B2F10D94B2F10D94B2F1F0
:10E020000D94B2F10D94B2F10D94B2F10D94B2F1E0
:10E030000D94B2F10D94B2F10D94B2F10D94B2F1D0
:10E040000D94B2F10D94B2F10D94B2F10D94B2F1C0
:10E050000D94B2F10D94B2F10D94B2F10D94B2F1B0
:10E060000D94B2F10D94B2F10D94B2F10D94B2F1A0
:10E070000D94B2F10D94B2F10D94B2F10D94B2F190
:10E080000D94B2F10D94B2F10D94B2F10D94B2F180
:10E090000D94B2F10D94B2F10D94B2F10D94B2F170
:10E0A0000D94B2F10D94B2F10D94B2F10D94B2F160
:10E0B0000D94B2F10D94B2F10D94B2F10D94B2F150
:10E0C0000D94B2F10D94B2F10D94B2F10D94B2F140
:10E0D0000D94B2F10D94B2F10D94B2F10D94B2F130
:10E0E0000D94B2F141546D656761323536300041AF
:10E0F000726475696E6F206578706C6F72657220DE
:10E1000073746B3530305632206279204D4C530099
:10E11000426F6F746C6F616465723E004875683F52
:10E1200000436F6D70696C6564206F6E203D200048
:10E130004350552054797065202020203D20005FF9
:10E140005F4156525F415243485F5F3D2000415658
:10E1500052204C696243205665723D20004743437C
:10E160002056657273696F6E203D20004350552024
:10E1700049442020202020203D20004C6F7720663D
:10E18000757365202020203D20004869676820665F
:10E190007573652020203D200045787420667573D6
:10E1A00065202020203D20004C6F636B2066757336
:10E1B000652020203D20004D617220203720323024
:10E1C000313300312E362E3800342E332E350056A2
:10E1D00023202020414444522020206F7020636F70
:10E1E00064652020202020696E73747275637469E1
:10E1F0006F6E2061646472202020496E74657272B3
:10E20000757074006E6F20766563746F7200726A49
:10E210006D702020006A6D70200057686174207056
:10E220006F72743A00506F7274206E6F7420737541
:10E2300070706F72746564004D7573742062652030
:10E2400061206C6574746572002000577269747483
:10E25000696E672045450052656164696E672045B7
:10E26000450045452065727220636E743D00504F35
:10E27000525400303D5A65726F2061646472003FF1
:10E280003D43505520737461747300403D454550C3
:10E29000524F4D207465737400423D426C696E6B41
:10E2A000204C454400453D44756D70204545505215
:10E2B0004F4D00463D44756D7020464C415348001B
:10E2C000483D48656C70004C3D4C69737420492F83
:10E2D0004F20506F72747300513D51756974005234
:10E2E0003D44756D702052414D00563D73686F7707
:10E2F00020696E7465727275707420566563746FF0
:10E30000727300593D506F727420626C696E6B00BD
:10E310002A0011241FBECFEFD1E2DEBFCDBF01E046
:10E320000CBF12E0A0E0B2E0EEE1FDEF03E00BBFB6
:10E3300002C007900D92A030B107D9F712E0A0E01B
:10E34000B2E001C01D92AE30B107E1F70F9460F367
:10E350000D948DFE01E20EBF0FEF0DBF11241FBE05
:10E360000D9460F30D9400F020E030E040ED57E0B4
:10E3700005C0FA013197F1F72F5F3F4F2817390792
:10E38000C0F308959C01260F311DC901A0E0B0E043
:10E390002F5F3F4FABBFFC018791882361F08093D3
:10E3A000C6008091C00086FFFCCF8091C0008064D1
:10E3B0008093C000EACF08958DE08093C6008091DD
:10E3C000C00086FFFCCF8091C00080648093C000B5
:10E3D0008AE08093C6008091C00086FFFCCF8091C8
:10E3E000C00080648093C00008950F94C2F10F9420
:10E3F000DCF10895FC019081992359F09093C600B7
:10E400008091C00086FFFCCF8091C0008064809323
:10E41000C0003196992379F70895282F982F929567
:10E420009F70892F805D8A3308F0895F8093C600D2
:10E430008091C00086FFFCCF8091C00080648093F3
:10E44000C000822F8F70982F905D9A3308F0995FEB
:10E450009093C6008091C00086FFFCCF8091C000E1
:10E4600080648093C00008959C01FB01853691056E
:10E470001CF46330710594F0C90164E670E00F94F8
:10E480002EFE605D7F4F6093C6008091C00086FFC6
:10E49000FCCF8091C00080648093C0002B30310598
:10E4A00014F43297B4F0C90164E670E00F942EFEC4
:10E4B0006AE070E00F942EFE605D7F4F6093C600AF
:10E4C0008091C00086FFFCCF8091C0008064809363
:10E4D000C000C9016AE070E00F942EFEC0968093E0
:10E4E000C6008091C00086FFFCCF8091C000806490
:10E4F0008093C00008951F93182F8EE692EE60E07F
:10E500000F94C2F11093C6008091C00086FFFCCF2B
:10E510008091C00080648093C0000F94DCF11F9153
:10E5200008952F923F924F925F926F927F928F92B7
:10E530009F92AF92BF92CF92DF92EF92FF920F9392
:10E540001F93DF93CF93CDB7DEB762970FB6F894E2
:10E55000DEBF0FBECDBF382E622ECA01DB015C01CB
:10E560006D01772420E2222E2E010894411C511CBB
:10E570008BC081E0A81680E0B80681E0C80680E084
:10E58000D80628F0C601AA27BB270F940DF2BB2797
:10E59000AD2D9C2D8B2D0F940DF28A2D0F940DF225
:10E5A0002092C6008091C00086FFFCCF8091C00001
:10E5B00080648093C0009DE29093C6008091C0006B
:10E5C00086FFFCCF8091C00080648093C0002092C1
:10E5D000C6008091C00086FFFCCF8091C00080649F
:10E5E0008093C00019828601750188249924A1E0D6
:10E5F0003A1651F03A1620F0B2E03B1661F409C029
:10E600000BBFF701779007C0C7010F9477FE782EF4
:10E6100002C0F7017080872D0F940DF22092C60082
:10E620008091C00086FFFCCF8091C0008064809301
:10E63000C000872D8052F401EF70F0708F3520F408
:10E64000E40DF51D708204C0E40DF51D8EE280839B
:10E650000894E11CF11C011D111D0894811C911CE2
:10E6600090E18916910409F0C2CF80E190E0A0E02A
:10E67000B0E0A80EB91ECA1EDB1E198AC2010F9493
:10E68000FAF10F94DCF16A94662009F072CF629679
:10E690000FB6F894DEBF0FBECDBFCF91DF911F91B3
:10E6A0000F91FF90EF90DF90CF90BF90AF909F9031
:10E6B0008F907F906F905F904F903F902F90089534
:10E6C0002F923F924F925F926F927F928F929F9282
:10E6D000AF92BF92CF92DF92EF92FF920F931F9370
:10E6E000DF93CF93CDB7DEB7CD53D1400FB6F894BB
:10E6F000DEBF0FBECDBF01E20EBF0FEF0DBF94B75F
:10E70000F894A89514BE80916000886180936000A1
:10E7100010926000789493FF05C0E0910002F091A0
:10E7200001021995279A2F9A8091C00082608093E8
:10E73000C00080E18093C40088E18093C1000000A4
:10E74000EE24FF24870144E0A42EB12CCC24DD2448
:10E7500024C0C5010197F1F70894E11CF11C011DCB
:10E76000111D21E2E2162EE4F20620E0020720E06D
:10E77000120718F031E0C32ED12CC801B70127ECE5
:10E780003BE140E050E00F9441FE611571058105C9
:10E79000910519F485B1805885B98091C00087FD35
:10E7A00003C0C114D104A9F2A6014F5F5F4FC25E3E
:10E7B000DE4F59834883CE51D140C25EDE4F8881FF
:10E7C0009981CE51D140019711F00D9410FEC05D9A
:10E7D000DE4F19821882C053D14060E0C15DDE4F28
:10E7E0001882CF52D14088249924C35DDE4F19820C
:10E7F0001882CD52D140C05EDE4F188219821A8233
:10E800001B82C052D140CE5CDE4F188219821A8220
:10E810001B82C253D140EE24FF2487010BBFF701B6
:10E8200007911691C45CDE4F19830883CC53D14005
:10E830000D940BFEC25EDE4F28813981CE51D1404E
:10E840002130310509F52091C600C25EDE4F1982E4
:10E850001882CE51D14022C02F5F3F4F4F4F5F4FA4
:10E86000213082E138078AE7480780E0580780F0C6
:10E87000C45CDE4FE881F981CC53D140EF5FFF4F9C
:10E8800019F0EE27FF27099420E030E040E050E047
:10E890008091C00087FFE0CF2091C600C35DDE4FAE
:10E8A00048815981CD52D1404F5F5F4FC35DDE4FEC
:10E8B00059834883CD52D140213209F063C64A3092
:10E8C000510508F05FC60894811C911C53E0851621
:10E8D000910409F059C600E010E018C081E280936D
:10E8E000C6008091C00086FFFCCF8091C00080648C
:10E8F0008093C0002F5F3F4F2931310579F70F9486
:10E90000DCF10F5F1F4F0530110519F020E030E0FA
:10E91000E5CF10920A0210920B0210920C02109294
:10E920000D02109206021092070210920802109235
:10E930000902109202021092030210920402109235
:10E9400005028FEE90EE60E00F94F5F180E191EE1C
:10E9500060E00F94C2F18091C00087FFFCCF9091DE
:10E96000C600903608F09F759032B8F09093C600BC
:10E970008091C00086FFFCCF8091C00080648093AE
:10E98000C000A0E2A093C6008091C00086FFFCCF2B
:10E990008091C00080648093C000983409F4D7C18E
:10E9A0009934B8F4923409F459C1933458F490333B
:10E9B00019F1903308F4E3C59F33A1F1903409F0C5
:10E9C000DEC5BDC0953409F470C1963409F0D7C5D1
:10E9D00098C1923509F42BC2933538F49C3409F46C
:10E9E000F5C1913509F0CBC518C2963509F445C279
:10E9F000993509F0C4C567C483E792EE62E00F94CD
:10EA0000F5F110920602109207021092080210927D
:10EA1000090210920A0210920B0210920C0210923C
:10EA20000D0213C18FE792EE62E00F94F5F18FEEC5
:10EA300090EE60E00F94F5F181E291EE60E00F94CA
:10EA4000C2F187EB91EE60E00F94F5F180E391EE77
:10EA500060E00F94C2F184EE90EE60E00F94F5F167
:10EA60008FE391EE60E00F94C2F186E090E061E008
:10EA700070E00F9434F20F94DCF18DE591EE60E0DC
:10EA80000F94C2F189EC91EE60E00F94F5F18EE401
:10EA900091EE60E00F94C2F183EC91EE60E00F9490
:10EAA000F5F18CE691EE60E00F94C2F18EE10F94E7
:10EAB0000DF288E90F940DF281E00F940DF20F949E
:10EAC000DCF18BE791EE60E00F94C2F119E0E0E039
:10EAD000F0E010935700E4918E2F0F940DF20F94F5
:10EAE000DCF18AE891EE60E00F94C2F1E3E0F0E03F
:10EAF00010935700E4918E2F0F940DF20F94DCF1D8
:10EB000089E991EE60E00F94C2F1E2E0F0E0109349
:10EB10005700E4918E2F0F940DF20F94DCF188EAE8
:10EB200091EE60E00F94C2F1E1E0F0E01093570045
:10EB30001491812F0F940DF20F94DCF107CF8BE825
:10EB400092EE62E00F94F5F18BE492EE60E00F94A8
:10EB5000F5F10F94DCF100E010E019C0C8016F2D51
:10EB60000F947FFEFF2031F489E492EE60E00F9471
:10EB7000C2F10BC0F092C6008091C00086FFFCCFAE
:10EB80008091C00080648093C0000F5F1F4FC80158
:10EB900081519F41A0E0B0E0ABBFFC01F790BAE229
:10EBA000FB1621F0E2E000301E07C1F60F94DCF105
:10EBB0000F94DCF187E592EE60E00F94F5F10F948D
:10EBC000DCF1CC24DD2400E010E01EC0C8010F946D
:10EBD00077FEF82E882331F489E492EE60E00F94FA
:10EBE000C2F10BC08093C6008091C00086FFFCCFAD
:10EBF0008091C00080648093C000FE1419F00894D6
:10EC0000C11CD11C0F5F1F4FC80181519F41A0E063
:10EC1000B0E0ABBFFC01E790FAE2EF1621F022E092
:10EC20000030120799F60F94DCF10F94DCF182E6C4
:10EC300092EE60E00F94C2F1C60161E070E00F94C3
:10EC400034F20F94DCF10F94DCF110920202109276
:10EC50000302109204021092050278CE89E992EE26
:10EC600062E00F94F5F1279A2F9A16C02F9880E052
:10EC700090E0E0EDF7E03197F1F7019684369105E9
:10EC8000C1F72F9A80E090E0E0EDF7E03197F1F7DF
:10EC9000019684369105C1F78091C00087FFE6CFC9
:10ECA0008091C00087FFFCCF64C485EA92EE62E0E9
:10ECB0000F94F5F140910202509103026091040219
:10ECC0007091050281E020E10F9491F2809102029F
:10ECD00090910302A0910402B091050280509F4FD1
:10ECE000AF4FBF4F8093020290930302A0930402A0
:10ECF000B093050280509041A040B04008F426CE69
:10ED0000A4CF83EB92EE62E00F94F5F140910602FE
:10ED100050910702609108027091090280E020E1A1
:10ED20000F9491F28091060290910702A09108023F
:10ED3000B091090280509F4FAF4FBF4F80930602A2
:10ED400090930702A0930802B0930902FFCD80ECD4
:10ED500092EE62E00F94F5F183E792EE60E00F949B
:10ED6000F5F18FE792EE60E00F94F5F18BE892EE0B
:10ED700060E00F94F5F189E992EE60E00F94F5F10F
:10ED800085EA92EE60E00F94F5F183EB92EE60E09D
:10ED90000F94F5F180EC92EE60E00F94F5F187ECC2
:10EDA00092EE60E00F94F5F188ED92EE60E00F9442
:10EDB000F5F18FED92EE60E00F94F5F18AEE92EEB0
:10EDC00060E00F94F5F183E093EEBDCD87EC92EE19
:10EDD00062E00F94F5F181E40F947BF282E40F94EA
:10EDE0007BF283E40F947BF284E40F947BF285E45E
:10EDF0000F947BF286E40F947BF287E40F947BF20E
:10EE000088E40F947BF28AE40F947BF28BE40F94F6
:10EE10007BF28CE40F947BF299CD88ED92EE62E068
:10EE20000F94F5F1772473948824992409C48FED05
:10EE300092EE62E00F94F5F140910A0250910B02BC
:10EE400060910C0270910D0282E020E10F9491F22A
:10EE500080910A0290910B02A0910C02B0910D02D8
:10EE600080509F4FAF4FBF4F80930A0290930B0289
:10EE7000A0930C02B0930D0269CD8AEE92EE62E08F
:10EE80000F94F5F184EE90EE60E00F94F5F18FECC5
:10EE900091EE60E00F94F5F1662477244301CC5D98
:10EEA000DE4F19821882C452D140D401C301B695F5
:10EEB000A79597958795CA5DDE4F88839983AA8326
:10EEC000BB83C652D140CC5DDE4FA881B981C4520C
:10EED000D1401196CC5DDE4FB983A883C452D14096
:10EEE000CD0162E070E00F9434F2B0E2B093C6005E
:10EEF0008091C00086FFFCCF8091C0008064809329
:10EF0000C000EDE2E093C6008091C00086FFFCCF18
:10EF10008091C00080648093C000F0E2F093C6004E
:10EF20008091C00086FFFCCF8091C00080648093F8
:10EF3000C000CA5DDE4FE880F9800A811B81C6529D
:10EF4000D140BB27A12F902F8F2D0F940DF2CA5DBA
:10EF5000DE4F8881C652D1400F940DF2B0E2FB2EF5
:10EF6000F092C6008091C00086FFFCCF8091C00067
:10EF700080648093C0000DE30093C6008091C000C0
:10EF800086FFFCCF8091C00080648093C00010E2B7
:10EF90001093C6008091C00086FFFCCF8091C00016
:10EFA00080648093C0008BBEF3012791C65DDE4F65
:10EFB0002883CA52D140A22EBB24CC24DD2408943D
:10EFC000611C711C811C911C8BBEF3018791282E42
:10EFD0003324442455240894611C711C811C911C09
:10EFE0008BBEF3013791C55DDE4F3883CB52D140E4
:10EFF0000894611C711C811C911C8BBEF30147910C
:10F00000C45DDE4F4883CC52D140ADEFEA2EAFEF66
:10F01000FA2EAFEF0A2FAFEF1A2F6E0C7F1C801E57
:10F02000911E142D032DF22CEE24EA0CFB1C0C1D5A
:10F030001D1D0F940DF220E22093C6008091C000A8
:10F0400086FFFCCF8091C00080648093C000C65DC5
:10F05000DE4F8881CA52D1400F940DF230E23093D6
:10F06000C6008091C00086FFFCCF8091C000806404
:10F070008093C000C45DDE4F8881CC52D1400F9494
:10F080000DF240E24093C6008091C00086FFFCCFA5
:10F090008091C00080648093C000C55DDE4F888190
:10F0A000CB52D1400F940DF250E25093C6008091A4
:10F0B000C00086FFFCCF8091C00080648093C000B8
:10F0C0008FEFE8168FEFF80680E0080780E018075A
:10F0D00031F484E092EE60E00F94C2F1DFC0D80119
:10F0E000C7018070907CA070B0708050904CA040A0
:10F0F000B040D1F52FEF3FE340E050E0E222F322B1
:10F1000004231523CA5DDE4FA880B980CA80DB8046
:10F11000C652D140AE0CBF1CC01ED11EAA0CBB1CD7
:10F12000CC1CDD1C8EE092EE60E00F94C2F1BB2798
:10F13000A12F902F8F2D0F940DF28E2D0F940DF285
:10F1400030E23093C6008091C00086FFFCCF8091F2
:10F15000C00080648093C0004EE34093C60080915D
:10F16000C00086FFFCCF87C08EE09EEFA0E0B0E03D
:10F17000E822F9220A231B239CE0E91694E9F90608
:10F1800090E0090790E0190709F088C0C45DDE4FE0
:10F19000A881CC52D140EA2EFF2400E010E0102FCD
:10F1A0000F2DFE2CEE24C55DDE4FB881CB52D14031
:10F1B000EB0EF11C011D111DD601C501817090706F
:10F1C000A070B070DC0199278827E80EF91E0A1F8D
:10F1D0001B1F20EF30E040E050E0A222B322C42207
:10F1E000D52241E1AA0CBB1CCC1CDD1C4A95D1F7F1
:10F1F000EA0CFB1C0C1D1D1D81E090E0A0E0B0E0BE
:10F20000282239224A225B2235E1220C331C441C7D
:10F21000551C3A95D1F7E20CF31C041D151D57013E
:10F220006801AA0CBB1CCC1CDD1C85E192EE60E0E1
:10F230000F94C2F1C801AA27BB270F940DF2BB2778
:10F24000A12F902F8F2D0F940DF28E2D0F940DF274
:10F2500090E29093C6008091C00086FFFCCF809121
:10F26000C00080648093C000AEE3A093C60080918C
:10F27000C00086FFFCCF8091C00080648093C000F6
:10F28000C601AA27BB270F940DF2BB27AD2D9C2DDD
:10F290008B2D0F940DF28A2D0F940DF20F94DCF14B
:10F2A000CC5DDE4FE881F981C452D140F99709F471
:10F2B0004DCBF4E0EF2EF12C012D112D6E0C7F1CA7
:10F2C000801E911EF2CD83E093EE62E00F94F5F183
:10F2D0008AE192EE60E00F94C2F18091C00087FF56
:10F2E000FCCF1091C6001F751093C6008091C0001E
:10F2F00086FFFCCF8091C00080648093C0000F9493
:10F30000DCF1812F81548A3108F036C1163409F4BA
:10F3100095C0173490F4133409F44EC0143430F40B
:10F320001134F1F0123409F01DC130C0143409F465
:10F3300059C0153409F016C16BC01A3409F4C4C0A1
:10F340001B3438F4173409F48FC0183409F00AC19B
:10F35000A1C01B3409F4D2C01C3409F003C1E8C0B9
:10F360008FEF81B90DC082B1809582B980E090E0C5
:10F37000E0EDF7E03197F1F70196883C9105C1F790
:10F380008091C00087FFEFCF12B8EFC08FEF84B934
:10F390000DC085B1809585B980E090E0E0EDF7E0A3
:10F3A0003197F1F70196883C9105C1F78091C00033
:10F3B00087FFEFCF15B8D9C08FEF87B90DC088B1DF
:10F3C000809588B980E090E0E0EDF7E03197F1F7C3
:10F3D0000196883C9105C1F78091C00087FFEFCF6F
:10F3E00018B8C3C08FEF8AB90DC08BB180958BB9A7
:10F3F00080E090E0E0EDF7E03197F1F70196883C8E
:10F400009105C1F78091C00087FFEFCF1BB8ADC059
:10F410008FEF8DB90DC08EB180958EB980E090E0F0
:10F42000E0EDF7E03197F1F70196883C9105C1F7DF
:10F430008091C00087FFEFCF1EB897C08FEF80BBD1
:10F440000DC081B3809581BB80E090E0E0EDF7E0F6
:10F450003197F1F70196883C9105C1F78091C00082
:10F4600087FFEFCF11BA81C08FEF83BB0DC084B38C
:10F47000809584BB80E090E0E0EDF7E03197F1F714
:10F480000196883C9105C1F78091C00087FFEFCFBE
:10F4900014BA6BC08FEF809301010FC080910201FD
:10F4A00080958093020180E090E0E0EDF7E03197F5
:10F4B000F1F70196883C9105C1F78091C00087FF64
:10F4C000EDCF1092020151C08FEF809304010FC065
:10F4D0008091050180958093050180E090E0E0ED4A
:10F4E000F7E03197F1F70196883C9105C1F78091DB
:10F4F000C00087FFEDCF1092050137C08FEF8093DA
:10F5000007010FC08091080180958093080180E079
:10F5100090E0E0EDF7E03197F1F70196883C910536
:10F52000C1F78091C00087FFEDCF109208011DC088
:10F530008FEF80930A010FC080910B01809580931B
:10F540000B0180E090E0E0EDF7E03197F1F70196F4
:10F55000883C9105C1F78091C00087FFEDCF1092E4
:10F560000B0103C085E292EEEEC98091C00087FFD7
:10F57000FCCF8091C600EAC988E392EEE4C98CE131
:10F5800091EEE1C988249924933011F1943028F444
:10F59000913089F09230B8F408C0953061F195301F
:10F5A000F0F0963009F048C043C02B3109F042C951
:10F5B00091E06BE13FC96227C15DDE4F2883CF52E6
:10F5C000D14092E037C9B22FA0E0622793E032C960
:10F5D000822F90E0A82BB92B622794E02BC92E3004
:10F5E00009F039C3622795E0C05DDE4F19821882A9
:10F5F000C053D1401FC9E1E0F0E0EC0FFD1FC05D3A
:10F60000DE4F08811981C053D140E00FF11F2083E4
:10F610000F5F1F4FC05DDE4F19830883C053D14079
:10F6200062270A171B0709F005C9D80196E002C92D
:10F63000261709F010C303C0973009F0FBC87724E0
:10F640009981933109F412C19431C8F4963009F4C8
:10F65000D8C0973050F4923009F406C1933009F4C1
:10F660006DC0913009F059C253C0913109F477C08F
:10F67000923108F0BBC0903109F04FC2F5C098310B
:10F6800009F487C0993150F4953109F4EFC09531F0
:10F6900008F4C6C1963109F040C2C2C19A3109F4DA
:10F6A0006CC09A3108F491C09B3109F45BC09D3164
:10F6B00009F033C29D81903359F48F81882311F46E
:10F6C0009EE11CC0813011F091E018C098E916C08D
:10F6D000892F807591F0903539F4E0E0F0E089E011
:10F6E0008093570094910AC0983539F4E3E0F0E034
:10F6F00089E080935700949101C090E01A821B82A8
:10F700008D818C831D829E831F8227E030E009C299
:10F710001A8288E08B8381E48C8386E58D8382E581
:10F720008E8389E48F8383E5888780E589878FE5E9
:10F730008A8782E38B872BE030E0F3C18A818139AD
:10F7400041F0823941F0803911F48FE005C080E04A
:10F7500003C082E001C08AE01A828B8344C0772410
:10F76000739482C08D81882311F48EE12CC0813086
:10F7700011F081E028C088E926C01A82E1E0F0E0BB
:10F7800089E08093570084918B831C8224E030E0D1
:10F79000C8C18B81803589F48C81883039F4E2E0EE
:10F7A000F0E089E08093570084910DC0E0E0F0E044
:10F7B00089E080935700849106C0E3E0F0E089E09F
:10F7C0008093570084911A82DFCF8D81836C99E0FA
:10F7D000E1E0F0E0082E90935700E89507B600FCB2
:10F7E000FDCF1A821B8223E030E09BC180EC8A832C
:10F7F000CE5CDE4F188219821A821B82C253D1401E
:10F800008EC18A8190E0A0E0B0E0582F44273327D2
:10F8100022278B8190E0A0E0B0E0DC0199278827C7
:10F82000282B392B4A2B5B2B8D8190E0A0E0B0E098
:10F83000282B392B4A2B5B2B8C8190E0A0E0B0E089
:10F84000BA2FA92F982F8827282B392B4A2B5B2BCF
:10F85000220F331F441F551FC05EDE4F288339839C
:10F860004A835B83C052D1401A8259C13A81C95C34
:10F87000DE4F3883C753D140CA5CDE4F1882C6536F
:10F88000D1408B81C82EDD24CA5CDE4F488159816E
:10F89000C653D140C42AD52A933109F082C0CE5C28
:10F8A000DE4F88819981AA81BB81C253D1408050AB
:10F8B000904CA340B04030F583E0CE5CDE4FE88052
:10F8C000F9800A811B81C253D140F70100935B008C
:10F8D00080935700E89507B600FCFDCFCE5CDE4F65
:10F8E000088119812A813B81C253D14000501F4FAA
:10F8F0002F4F3F4FCE5CDE4F088319832A833B8313
:10F90000C253D140C05EDE4F488159816A817B81FC
:10F91000C052D140DE011B9631E08C9111962C91A2
:10F9200011971296C75CDE4F2883C953D140C85C3B
:10F93000DE4F1882C853D14090E0C85CDE4FE881AA
:10F94000F981C853D1408E2B9F2B0C01FA01609393
:10F950005B0030935700E89511244E5F5F4F6F4F67
:10F960007F4F0EEFE02E0FEFF02ECE0CDF1CC114F8
:10F97000D10499F685E0C05EDE4F088119812A81A5
:10F980003B81C052D140F80120935B008093570027
:10F99000E89507B600FCFDCF81E180935700E8951C
:10F9A00035C0C05EDE4F88819981AA81BB81C0527B
:10F9B000D140B695A795979587957C018601ABE0D8
:10F9C000AA2EB12CAC0EBD1E0BC0D5016D915D01F0
:10F9D000C7010F947FFE0894E11CF11C01501040F8
:10F9E0000115110591F7A60160E070E0440F551F65
:10F9F000661F771FC05EDE4FE880F9800A811B8199
:10FA0000C052D1404E0D5F1D601F711F1A82C05E33
:10FA1000DE4F488359836A837B83C052D1407FC0C5
:10FA2000FA80C55CDE4FF882CB53D140C65CDE4F16
:10FA30001882CA53D1408B81C82EDD24C65CDE4FAC
:10FA400008811981CA53D140C02AD12A1A828981DA
:10FA5000BE016D5F7F4F843121F59601C05EDE4FA0
:10FA6000E880F9800A811B81C052D1400BBFF701A9
:10FA700087919691DB018C9311969C936E5F7F4FDB
:10FA8000D801C7010296A11DB11DC05EDE4F88835B
:10FA90009983AA83BB83C052D14022503040F1F6F3
:10FAA00036C0C05EDE4F288139814A815B81C052F9
:10FAB000D1400894C108D108760100E010E0089414
:10FAC000C11CD11C0894E11CF11C011D111DE20E8A
:10FAD000F31E041F151F21BDBB27A52F942F832FB5
:10FAE00082BD2F5F3F4F4F4F5F4FF89A80B5DB01CC
:10FAF0008D93BD012E153F054007510761F7C05E8C
:10FB0000DE4F288339834A835B83C052D1409601FC
:10FB10002D5F3F4FFB01108204C080EC8A8322E0FE
:10FB200030E08BE18093C6008091C00086FFFCCF5F
:10FB30008091C00080648093C000C15DDE4FF88179
:10FB4000CF52D140F093C6008091C00086FFFCCF19
:10FB50008091C00080648093C000432F3093C60022
:10FB60008091C00086FFFCCF8091C00080648093AC
:10FB7000C000922F2093C6008091C00086FFFCCF6A
:10FB80008091C00080648093C0008EE08093C600A6
:10FB90008091C00086FFFCCF8091C000806480937C
:10FBA000C00065E1C15DDE4FE880CF52D1406E25D7
:10FBB00069276427FE01319610C090819093C6009A
:10FBC0008091C00086FFFCCF31968091C000806498
:10FBD0008093C0006927215030402115310569F715
:10FBE0006093C6008091C00086FFFCCF8091C0006A
:10FBF00080648093C00085B1805885B9772081F4F6
:10FC0000C15DDE4F0881CF52D1400F5FC15DDE4F35
:10FC10000883CF52D14090E0A0E0B0E00D941AF4F8
:10FC200027982F9880E090E020ED37E0F901319798
:10FC3000F1F7019684369105C9F700008091C00064
:10FC40008D7F8093C00081E180935700E895EE2777
:10FC5000FF270994FFCF90E00D941AF497FB092E2B
:10FC600007260AD077FD04D02ED006D000201AF443
:10FC7000709561957F4F0895F6F7909581959F4F08
:10FC80000895A1E21A2EAA1BBB1BFD010DC0AA1FDD
:10FC9000BB1FEE1FFF1FA217B307E407F50720F0F5
:10FCA000A21BB30BE40BF50B661F771F881F991F70
:10FCB0001A9469F760957095809590959B01AC01B9
:10FCC000BD01CF010895AA1BBB1B51E107C0AA1FAC
:10FCD000BB1FA617B70710F0A61BB70B881F991FED
:10FCE0005A95A9F780959095BC01CD010895F99991
:10FCF000FECF92BD81BDF89A992780B50895262F31
:10FD0000F999FECF1FBA92BD81BD20BD0FB6F89400
:0EFD1000FA9AF99A0FBE01960895F894FFCF63
:040000033000E000E9
:00000001FF